:020000040800F2
:10000000001000209D010008A928000875210008A3
:10001000A5280008B5020008D5330008000000003C
:10002000000000000000000000000000C5310008D2
:10003000B902000800000000C1310008C931000801
:10004000B7010008B7010008B7010008B7010008B0
:10005000B7010008B7010008B7010008B7010008A0
:10006000B7010008B7010008B7010008B701000890
:10007000B7010008B7010008B7010008B701000880
:10008000B7010008B7010008B7010008B701000870
:10009000B7010008B7010008B7010008B701000860
:1000A000B7010008B7010008B7010008B701000850
:1000B000B7010008B7010008B7010008B701000840
:1000C000B7010008B7010008B7010008B701000830
:1000D000B7010008B7010008B7010008B701000820
:1000E000B7010008B7010008B7010008B701000810
:1000F000B70100088D320008B7010008B7010008F9
:10010000B7010008B7010008B7010008B7010008EF
:10011000B7010008B7010008B7010008B7010008DF
:10012000B7010008B7010008B7010008B7010008CF
:10013000B7010008B7010008B7010008B7010008BF
:10014000B7010008B7010008B7010008B7010008AF
:10015000B7010008B7010008B7010008B70100089F
:10016000B7010008B7010008B7010008B70100088F
:10017000B7010008B7010008B7010008000000003F
:10018000B7010008B7010008DFF80CD000F07AF8DA
:10019000004800473534000800100020064880471A
:1001A00006480047FEE7FEE7FEE7FEE7FEE7FEE75C
:1001B000FEE7FEE7FEE7FEE7793200088901000866
:1001C0002DE9F05F0546002092469B46884606468C
:1001D000814640241BE0284641464746224600F01F
:1001E00041F853465A46C01A914110D31146184659
:1001F000224600F028F82D1A67EB01084F462246E8
:100200000120002100F01FF817EB00094E41201ECD
:10021000A4F10104DFDC484631462A464346BDE8E6
:10022000F09FD2B201E000F8012B491EFBD27047CB
:100230000022F6E710B513460A4604461946FFF7B2
:10024000F0FF204610BD202A04DB203A00FA02F11C
:10025000002070479140C2F1200320FA03F31943B4
:1002600090407047202A04DB203A21FA02F0002156
:10027000704721FA02F3D040C2F1200291400843B6
:10028000194670471CB50948009009480190054679
:10029000009C06E0E06840F0010394E807009847FE
:1002A0001034AC42F6D3FFF773FF00005C46000841
:1002B0007C460008FEE700007047000072B600BFF1
:1002C000FEE7000070B540F29C04C2F20004207802
:1002D00001283BD0022848D194F84002002844D09D
:1002E00004F11005002604E00136864205F11405EC
:1002F0003BD2297C0029F7D095ED000A95ED011A33
:10030000BDEEC00A10EE100ABDEEC10A10EE101AC2
:10031000012202F0D5FA95ED000A95ED022A95ED3D
:10032000011A95ED033A30EE420ABDEEC00A10EE16
:10033000100A31EE430ABDEEC00A10EE101A012277
:1003400002F0BEFA94F84002CEE700BF94ED010A35
:1003500094ED021ABDEEC00A10EE100ABDEEC10AFD
:1003600010EE101A012202F0ABFA94F844020128B0
:100370003CD0022849D194F88404002845D004F5E3
:100380001575002605E000BF0136864205F114050B
:100390003BD2297C0029F7D095ED000A95ED011A92
:1003A000BDEEC00A10EE100ABDEEC10A10EE101A22
:1003B000012202F085FA95ED000A95ED022A95EDED
:1003C000011A95ED033A30EE420ABDEEC00A10EE76
:1003D000100A31EE430ABDEEC00A10EE101A0122D7
:1003E00002F06EFA94F88404CEE700BF94ED920A0E
:1003F00094ED931ABDEEC00A10EE100ABDEEC10ACC
:1004000010EE101A012202F05BFA94F88804012819
:100410003ED002283AD194F8C806002808BF70BD23
:1004200004F59565002604E00136864205F11405C1
:100430002CD229780029F7D015ED040A15ED031AFE
:10044000BDEEC00A10EE100ABDEEC10A10EE101A81
:10045000012202F035FA15ED040A15ED022A15ED18
:10046000031A15ED013A30EE420ABDEEC00A10EE55
:10047000100A31EE430ABDEEC00A10EE101A012236
:1004800002F01EFA94F8C806CEE700BF70BD00BFA8
:1004900004F28C4090ED000A04F5926090ED001A91
:1004A000BDEEC00A10EE100ABDEEC10A10EE101A21
:1004B0000122BDE8704002F003BA00002DE9F04FC0
:1004C00081B02DED108B84B040F29C0AC2F2000A7C
:1004D00044F66D6740F204069FED0E9A9FED0EAA5A
:1004E0009FED0EBA9FED0ECA9FED0EDA9FED0EEA5C
:1004F0000AF15C0EC4F2C6174FF4117CC2F200067A
:1005000043F239044CF20D3B4FF0150800254FF033
:10051000000919E0CDCC0CC0F90FC940000000382B
:100520003333B33F9A99193F0AD7233D00205881AE
:10053000302018714FF0010901350EF5117E032DA1
:100540000AF5117A00F0C48340F29C0005FB0CF11F
:10055000C2F20000415C05FB0C03002900F0488258
:10056000012940F0878293ED020A187B30EE09FAE8
:1005700000EE100AB8EE400AB4EE40FAF1EE10FABE
:1005800083ED02FAD6DCB068022100FB0740197047
:10059000C0F30E4141F246725143090C0B22514304
:1005A000C1EB10411231D3ED018A029501F0030233
:1005B00001F03C09754683F840120192CDF80CE039
:1005C00000FB074045ED138AC0F30E4100EE101A00
:1005D00000FB0740B8EE400A20EE0A0AB060C0F304
:1005E0000E4020EE0B8A00EE100AB8EE400A20EE14
:1005F0000B0A20EE0C0A70EE0D9AB0EE480A05EDDB
:1006000012FA03F05BFA20EE290A05ED110AB0EEAA
:10061000480A03F0FBFAB06820EE290A00FB074005
:1006200005ED100AC0F30E4101FB0BF1090D01FBB2
:1006300008F1C1EB104100FB0740193105F83C1CE3
:10064000C0F30E4100EE101A00FB0740B8EE400A5E
:1006500020EE0A0AB060C0F30E4020EE0B8A00EED6
:10066000100AB8EE400A20EE0B0A20EE0C0A70EEDB
:100670000D9AB0EE480A45ED0E8A05ED0DFA03F02D
:100680001DFA20EE290A05ED0C0AB0EE480A03F027
:10069000BDFAB06820EE290A00FB074005ED0B0A01
:1006A000C0F30E4101FB0BF1090D01FB08F1C1EB99
:1006B000104100FB0740193105F8281CC0F30E411A
:1006C00000EE101A00FB0740B8EE400A20EE0A0ABE
:1006D000B060C0F30E4020EE0B8A00EE100AB8EEB8
:1006E000400A20EE0B0A20EE0C0A70EE0D9AB0EED6
:1006F000480A45ED098A05ED08FA03F0DFF920EE16
:10070000290A05ED070AB0EE480A03F07FFAB0683F
:1007100020EE290A00FB074005ED060AC0F30E4152
:1007200001FB0BF1090D01FB08F1C1EB104100FBCE
:100730000740193105F8141CC0F30E4100EE101AE1
:1007400000FB0740B8EE400A20EE0A0AB060C0F392
:100750000E4020EE0B8A00EE100AB8EE400A20EEA2
:100760000B0A20EE0C0A70EE0D9AB0EE480A45ED29
:10077000048A05ED03FA03F0A1F920EE290A05ED3C
:10078000020AB0EE480A03F041FAB06820EE290AE6
:1007900000FB074005ED010AC0F30E4101FB0BF120
:1007A000090D01FB08F1C1EB104119312970B9F1B4
:1007B000040905F15005B0607FF402AFDDF8049044
:1007C000B9F1000F00F0C88000FB074045ED138A27
:1007D000C0F30E4100EE101A00FB0740B8EE400ACD
:1007E00020EE0A0AB060C0F30E4020EE0B8A00EE45
:1007F000100AB8EE400A20EE0B0A20EE0C0A70EE4A
:100800000D9AB0EE480A05ED12FA03F057F920EE02
:10081000290A05ED110AB0EE480A03F0F7F9B068AD
:1008200020EE290A00FB0740B9F1010FC0F30E4189
:1008300001FB0BF14FEA115101FB08F1C1EB104133
:1008400001F1190105ED100AB06005F83C1C00F03B
:10085000838000FB074045ED0E8AC0F30E4100EE99
:10086000101A00FB0740B8EE400A20EE0A0AB060FA
:10087000C0F30E4020EE0B8A00EE100AB8EE400ADC
:1008800020EE0B0A20EE0C0A70EE0D9AB0EE480A2C
:1008900005ED0DFA03F012F920EE290A05ED0C0A18
:1008A000B0EE480A03F0B2F9B06820EE290A00FB66
:1008B0000740B9F1020FC0F30E4101FB0BF14FEA03
:1008C000115101FB08F1C1EB104101F1190105EDD6
:1008D0000B0AB06005F8281C3ED000FB074045ED30
:1008E000098AC0F30E4100EE101A00FB0740B8EE73
:1008F000400A20EE0A0AB060C0F30E4020EE0B8AD8
:1009000000EE100AB8EE400A20EE0B0A20EE0C0AA8
:1009100070EE0D9AB0EE480A05ED08FA03F0CEF835
:1009200020EE290A05ED070AB0EE480A03F06EF939
:10093000B06820EE290A00FB074005ED060AC0F367
:100940000E4101FB0BF1090D01FB08F1C1EB104158
:100950001931B06005F8141C00FB074045F6294228
:10096000C0F30E41C0F28F22A1FB0223642203FBDD
:100970001211B060132900F2958100FB074042F686
:100980008353C0F30E425343DB0C2D25BDEEE80A22
:1009900003FB152200FB074010EE101A1144C0F3B0
:1009A0000E4244F29F655543ED0C1D23BDEECF0A68
:1009B000163905FB132210EE10CA0DB240F278036F
:1009C000B0600CEB0200002D029DC2F20003A0F10A
:1009D0000E004FF4117C1981588100F16B8189B2AE
:1009E000DDF80CE06129C0F06981602165E100BF9C
:1009F000B168184601FB07414EF6EF63C1F30E42A2
:100A0000CEF6EE635A4344F244434FEAB202C0F2D8
:100A100044439A42B1603FF68FAD01FB074140F677
:100A20007323C1F30E4253439B0C4FF0620903FB47
:100A3000192201FB07410F3292B200EE102A002268
:100A40000123C4F27C2203708260C1F30E4241F2A2
:100A50007B435A43520C19235A43B160C2EB1141F4
:100A6000B8EE400A08314FF0010980ED010A017328
:100A700062E500BF93F840C2BCF1000F7BD0BCF12F
:100A8000040F0193CDF80CE002957BD200230021E6
:100A9000DDE9025E1CF0030C6AD0019803EB8303CE
:100AA00000F1100202EB8302137CD3B192ED000A35
:100AB00092ED022A92ED011A92ED033A013B32EED9
:100AC000000A137433EE011A82ED000A33EE0E0AA7
:100AD0001B0682ED011A82ED030A4FF0010318BFD5
:100AE0001946BCF1010F43D092F82430F3B102F162
:100AF000140090ED000A90ED022A90ED011A90ED9D
:100B0000033A013B32EE000ADDF80CE0037433EEE9
:100B1000011A80ED000A33EE0E0A1B0680ED011A61
:100B200080ED030A4FF0010318BF1946BCF1020F14
:100B30001ED092F83800D8B1283292ED000A92ED1A
:100B4000022A92ED011A92ED033A013832EE000AC0
:100B5000107433EE011A82ED000A33EE0E0A00061D
:100B600082ED011A82ED030A4FF0010018BF014621
:100B7000019B080601D1002018704FF001094FF4C5
:100B8000117CD9E44FEA9C0000EB80004FEA001989
:100B900000220023002105E05032914503F10403B7
:100BA0003FF476AF0AEB020090F82050DDB190EDF3
:100BB000040A90ED062A90ED051A90ED073A32EE00
:100BC000000A013D80ED040A33EE010A80F820504E
:100BD00080ED050A33EE0E0A2D0680ED070A4FF070
:100BE000010518BF294690F83450DDB190ED090A8F
:100BF00090ED0B2A90ED0A1A90ED0C3A32EE000AB5
:100C0000013D80ED090A33EE010A80F8345080ED91
:100C10000A0A33EE0E0A2D0680ED0C0A4FF001058C
:100C200018BF294690F84850DDB190ED0E0A90EDBE
:100C3000102A90ED0F1A90ED113A32EE000A013DA4
:100C400080ED0E0A33EE010A80F8485080ED0F0A5D
:100C500033EE0E0A2D0680ED110A4FF0010518BF84
:100C6000294690F85C50002D96D090ED130A90ED37
:100C7000152A90ED141A90ED163A32EE000A80ED26
:100C8000130A33EE010A013D80ED140A33EE0E0A19
:100C900080F85C5080ED160A28064FF0010018BF5E
:100CA000014679E7DDF80CE0029D4FF001094FF4B1
:100CB000117C41E4DDF80CE00021198101B200292A
:100CC0003FF534AC80B22D28FFF432AC2C202EE45A
:100CD0005FFA89F004B0BDEC108B01B0BDE8F08F75
:100CE000B0B5044600F0ECF8054640F21000C2F240
:100CF00000000078611C18BF044400BF00F0E0F859
:100D0000401BA042FAD3B0BD2DE9F04F83B000F1F3
:100D1000200200F13E4741F60045009207F1FF77BF
:100D2000C4F2020508224FEAB726A84208BF0722EC
:100D300000254FF000084FF00009072E38BF4FEA9A
:100D4000B72201920AE000BF09F1010908F1020887
:100D5000B9F1100F05F1040500F0A2800F6801221F
:100D600002FA09FE17EA0E0AEED0D1F804C00322F7
:100D70000CF003077E1E02FA08F4012E6FEA040B42
:100D800012D88468CE6804EA0B0406FA08F63443E5
:100D90008460446824EA0E06CCF3001404FA09F4D3
:100DA0002643466004E000BF032F01D103271EE065
:100DB000C6688C6806EA0B0604FA08F42643022F7C
:100DC000C66014D16FF00302009E02EA590756F87C
:100DD00007C005F01C040F220B69A2402CEA020296
:100DE000A3401A43F251D1F804C00CF00307026883
:100DF00007FA08F302EA0B021A431CF4403F0260B0
:100E0000A2D0002243F644030292C4F202031A68FD
:100E100043F6004442F480421A601A68C4F20104A6
:100E200002F480420292029A29F003024FF6084C23
:100E30002244CFF6FF7C52F80C3005F00C070F2649
:100E4000BE40B343019E06FA07F73B4342F80C301D
:100E5000A2684B6842EA0A0743F60C4CDE0258BF10
:100E600022EA0A07A760C4F2010CDCF800209E0207
:100E700042EA0A0758BF22EA0A07CCF80070626803
:100E80009E0342EA0A0758BF22EA0A0767602268FF
:100E9000DB0342EA0A0758BF22EA0A07276053E742
:100EA00003B0BDE8F08F00000069084018BF0120C2
:100EB00070470000002A08BF0904816170470000E4
:100EC00040F6F830C2F2000000687047002804BF06
:100ED00001207047F0B581B0044690F83D0028B974
:100EE000002084F83C00204600F0A6FA242084F874
:100EF0003D002068016821F001010160016841F4B2
:100F000000410160016821F40041016000F000FC33
:100F1000636848F2A16CC0F2010C40F60011C0F207
:100F20003D0163453CBF48F28041C0F21E0188424A
:100F300002D2012001B0F0BD4DF68361C4F21B3135
:100F4000A0FB01122168970CD1F804E04FF49676CB
:100F50002EF03F0545EA92454D60774348F6381636
:100F60000D6AC0F24106A7FB067625F03F076345F0
:100F700038BF960C721C3A430A62CA6948F2A066EE
:100F80004CF6FF77C0F20106B34222EA07020BD803
:100F900001385B00B0FBF3F001306FF31F30042821
:100FA00098BF04201BE000BFA768013857B119277C
:100FB0007B43B0FBF3F001306FF31F3070B100F5ED
:100FC000804007E003EB4303B0FBF3F001306FF325
:100FD0001F3018B100F5004001E000BF01201043B0
:100FE000C8610868D4E9072320F0C0001043184303
:100FF0000860886848F2FF3204F10C0790438CCFF8
:1010000018431043A6698860C86820F0FF00384381
:101010003043C860086840F00100086000202021CB
:10102000206484F83D10206384F83E0001B0F0BDD8
:101030002DE9F04F81B01D46174688460446FFF75C
:101040003FFF94F83D1020291ED10646216888698B
:10105000800715D5FFF734FF801B1928F6D900202B
:101060002021206384F83D1084F83E00216C41F07B
:101070002001216484F83C00022001B0BDE8F08F1B
:1010800094F83C00012803D1022001B0BDE8F08FA4
:101090004FF0010984F83C900868C00703D1086844
:1010A00040F00100086008684FF0000A20F400607A
:1010B0000860242084F83D000020CFF6FF70C4F8BB
:1010C00040A0E06208F0FE08012F88BFB94605F194
:1010D000010BA02705E000BF0AF1010ACA4500F094
:1010E0009980086840F4807008604869C0070FD193
:1010F000BBF1000F52D0002D00F09680FFF7E0FE0C
:10110000801BA84200F2928021684869C007F5D090
:10111000C1F81080FFF7D4FE21684B694A6994F842
:101120003D60A02E06461ED013F0020008BF12F448
:10113000806018D1FFF7C4FE35B1801BA84288BF7C
:1011400084F83D7002E000BF84F83D7021684A6970
:10115000486994F83D30A02B05D012F0020208BF78
:1011600010F48060E6D0202084F83D0048690A68C9
:10117000800742F400720A601ED46FF480604861F8
:1011800088698007A8D500BFFFF79AFE801B192841
:101190002ED8216888698007F6D49DE74869C00782
:1011A000B6D14869C00704BF48695FEAC070AFD1D3
:1011B0004869C007F2D0ABE7002000904869009072
:1011C0008869009000988869800708D5FFF778FE45
:1011D000801B19280CD8206880698007F6D420204D
:1011E00084F83D00002084F83C0001B0BDE8F08F99
:1011F00000202021206384F83D1084F83E00216CFB
:1012000041F02001216484F83C00012001B0BDE8D8
:10121000F08F00BF202084F83D00002084F83C00BF
:10122000012001B0BDE8F08FFFF74AFE0020202129
:10123000206384F83D1084F83E00216C41F02001C9
:101240002164216884F83C000868C00544BF4FF45D
:1012500000702064032001B0BDE8F08F2DE9F04359
:1012600083B0994616460F460446FFF729FE94F8C8
:101270003D1020291ED1054620688169890715D5B2
:10128000FFF71EFE401B1928F6D9002020212063FD
:1012900084F83D1084F83E00216C41F02001216467
:1012A00084F83C00022003B0BDE8F08394F83C10C1
:1012B000012903D1022003B0BDE8F083012284F8A4
:1012C0003C200368DDE90B180A9ADB0703D10368A9
:1012D00043F001030360036823F4006303602120EB
:1012E00084F83D00402084F83E00002020646262C3
:1012F0006185608D394620850020CFF6FF70E06261
:10130000204632464B46CDE9008500F035FF18B146
:10131000012003B0BDE8F083208D002850D0206864
:1013200008F10106014651F8142F12062CD49EB183
:10133000B8F1000F5AD000BF086840055ED4FFF72F
:10134000BFFD401B404556D82068014651F8142F78
:101350001206F1D518E000BF0A6852054ED40A689B
:10136000120611D40A68520548D40A6812060BD432
:101370000A68520542D40A68120605D40A68520562
:101380003CD40A681206E7D5626A114611F8013B9F
:101390000361238D6162591E2185678D013F678539
:1013A00047697F070AD50F0408D051780161911C65
:1013B0006162991E2185628D013A62850904B1D16D
:1013C000204641462A4601F00FF838BB20680168E4
:1013D00041F400710160202084F83D00002084F871
:1013E0003E0084F83C0003B0BDE8F0830868400587
:1013F00004D4FFF765FD202004E000BF6FF4806097
:101400000860042000212022216384F83D2084F814
:101410003E10226C1043206484F83C10206C042899
:101420007FF476AF2068016841F40071016001200B
:1014300003B0BDE8F08300007047000040F21000E8
:1014400040F6F831C2F20000C2F2000100780A68EA
:10145000104408607047000080B543F60040C4F2B5
:101460000200016841F400710160016841F480618B
:101470000160016841F480710160032000F086F88A
:101480000F2000F005F800F027F8002080BD0000D4
:1014900070B540F21006C2F2000640F21801327830
:1014A000C2F200014FF47A730968B3FBF2F204460A
:1014B000B1FBF2F1084600F04DFB0F2C4FF0010597
:1014C00008D838B94FF0FF3021460022002500F03F
:1014D00031F87460284670BD82B0002043F64001A8
:1014E0000190C4F202014A6842F480424A604A68AC
:1014F00002F480420192019A0090086840F0805006
:101500000860086800F080500090009802B07047B2
:10151000002848BF704700F01F01012202FA01F1C4
:101520001C2202EAD0004EF20012CEF200028150DC
:101530007047000010B54EF60C5CCEF2000CDCF8E3
:101540000030C3F3022E8EF00704042C28BF0424BD
:10155000BEF103034FF0FF3E0EFA04F438BF002340
:10156000A14399400EFA03F39A43114300F00F028E
:1015700000F160430901043A03F564436244002822
:1015800048BF02F10C03197010BD00004EF60C515B
:10159000CEF200010A684FF6FF031A4060F30A22F8
:1015A00042F0806040F0FD7008607047002804BF82
:1015B000012070472DE9F04143F60808C4F2020803
:1015C0000446D8F8F8030D4600F00700814207D919
:1015D00088F8F853D8F8F80300F00700A84277D14C
:1015E0002068810717D5410705D5D8F8001041F4C8
:1015F000E051C8F80010010705D5D8F8001041F4F3
:101600006041C8F80010D8F80010A26821F0F0017D
:101610001143C8F80010C00740D1D8F8F80300F013
:101620000700854207D288F8F853D8F8F80300F08D
:101630000700A8424CD12068410707D5D8F8001010
:10164000E26821F4E0511143C8F80010000708D502
:10165000D8F80000216920F4604040EAC100C8F8D1
:10166000000000F069F8D8F8001043F66472C1F386
:101670000311C0F60002515C40F2180220FA01F199
:1016800040F21400C2F200000068C2F200021160D1
:10169000FFF7FEFE0020BDE8F08100BF6068811EFC
:1016A000022907D258F8081C89015CBF0120BDE857
:1016B000F08111E0012807D158F8081C89035CBFAC
:1016C0000120BDE8F08107E058F8081C890703D421
:1016D0000120BDE8F08100BFD8F8001021F003011F
:1016E0000843C8F80000FFF7EBFB064641F28837D5
:1016F000D8F80000616800F00C00B0EB810F8CD0CE
:10170000FFF7DEFB801BB842F2D90320BDE8F08171
:1017100040F2180043F60801C2F20000C4F20201D0
:101720000068096843F67472C1F38221C0F60002B2
:10173000515CC8407047000010B543F60404C4F281
:1017400002046168C1F3810142F20040C0F2F4007A
:10175000DFE801F002040A0210BD00BF41F20020E0
:10176000C0F27A0010BD00BF216801F03F0221687D
:1017700023684902C3F3881106D4A1FB00010023AA
:10178000FEF71EFD07E000BF41F20020C0F27A0024
:101790004843B0FBF2F021680222C1F3014102EBA1
:1017A0004101B0FBF1F010BD002804BF01207047DB
:1017B0002DE9F04182B00446007843F60006C007E8
:1017C000C4F202060CD0B06800F00C00042840F00F
:1017D00081803068800303D56068002800F068814C
:1017E000207880071BD5B06810F00C0F09D0B068C6
:1017F00000F00C00082840F087807068400200F17B
:1018000083803068800703D5E068012840F050816C
:101810003068216920F0F80040EAC100306020788B
:10182000000713D4207840072AD4A569002D00F0C2
:101830003A81B06800F00C00082840F0A580012D26
:1018400040F00E81012002B0BDE8F08160690028FF
:1018500000F082800020C4F247200121C0F8801EE1
:10186000FFF72EFB054600BF706F8007DAD4FFF745
:1018700027FB401B0228F7D9032002B0BDE8F08106
:10188000306C5FEAC0080AD400200190306C40F050
:1018900080503064306C00F080500190019847F225
:1018A0000007C4F200073868C00547D4386840F420
:1018B00080703860FFF704FB054600BF3868C0053C
:1018C0003CD4FFF7FDFA401B0228F7D9032002B0F1
:1018D000BDE8F081B06800F00C00082803D1706802
:1018E00040023FF576AF61683068B1F5803F07D0C0
:1018F000B1F5A02F40F09A8040F48020306030682D
:1019000040F4803030609AE0E068002840F2000047
:10191000C4F247205CD001210160FFF7D1FA0546EF
:10192000306880073FF574AFFFF7CAFA401B022802
:10193000F6D9032002B0BDE8F08100BFA168306F86
:10194000012905D0052955D140F004003067306FDA
:1019500040F00100306756E00020C4F2472000212B
:10196000C0F8801EFFF7ACFA054600BF706F800715
:101970007FF558AFFFF7A4FA401B0228F6D90320E1
:1019800002B0BDE8F08100BF0027C4F24727002065
:101990003866FFF795FA022D05460DD130688001B3
:1019A00040F18A80FFF78CFA401B02284FF00300B9
:1019B000F4D902B0BDE8F0813068800173D5FFF73B
:1019C0007FFA401B02284FF00300F5D9F1E700BF72
:1019D00000210160FFF774FA054600BF30688007F8
:1019E0007FF51DAFFFF76CFA401B02284FF0030094
:1019F000F4D9DEE720F001003067306F002920F0D5
:101A0000040030677AD0FFF75BFA054641F2883769
:101A1000306F800700F18480FFF752FA401BB84214
:101A2000F6D9032002B0BDE8F08100BF20F4803079
:101A300030603068002920F4802030607AD0FFF7D1
:101A40003FFA0546306880033FF5CAAEFFF738FA23
:101A5000401B6428F6D9032002B0BDE8F08100BF26
:101A60007068E16900F480028A4221D1216A00F0A5
:101A70003F028A421CD147F6C071626A0140B1EB55
:101A8000821F15D1A16A4FF6FF73C903994300F471
:101A90004032A1F580318A420AD1E16A00F07060DB
:101AA000B0EB016F04D1002002B0BDE8F08100BFAF
:101AB000012002B0BDE8F08104F11C052FCD0843E0
:101AC00040EA8210D9034FF6FF729143A1F58031AD
:101AD00040EA05600843706001203866FFF7F0F9BE
:101AE000044600BF30688001DDD4FFF7E9F9001B30
:101AF00002284FF00300F5D95BE700BFFFF7E0F9DC
:101B0000054641F2883700BF306F800708D5FFF7E0
:101B1000D7F9401BB8424FF00300F5D949E700BFA1
:101B2000B8F1000F3FF581AE306C20F0805030648A
:101B30007BE600BFFFF7C4F9054600BF30688003AD
:101B40007FF54EAEFFF7BCF9401B64284FF0030051
:101B5000F4D92EE7411E0020B0EB116F1CBF01200D
:101B600070474EF21002CEF2000251604EF6235141
:101B7000CEF20001F0230B700721906011607047D6
:101B80007047000070470000002804BF0120704724
:101B900010B5044690F83D0028B9002084F83C00B8
:101BA000204600F01FF8022084F83D002068211D27
:101BB00001F072FB012084F8460084F83E0084F8AE
:101BC0003F0084F8400084F8410084F8420084F823
:101BD000430084F8440084F8450084F83D00002068
:101BE00010BD000080B582B0006841F60041C4F22B
:101BF0000001884220D042F20001C4F20001884274
:101C000029D10020019043F64000C4F2020001688F
:101C1000002241F4807101600068002100F48070AE
:101C2000019001982D20FFF785FC2D2002B0BDE822
:101C30008040FFF76DBC00BF0020009043F64000DD
:101C4000C4F20200016841F080010160006800F008
:101C500080000090009802B080BD000090F83C2009
:101C6000012A4FF0020209D080F83D20026851613C
:101C70000121002280F83D1080F83C20104670477A
:101C80007047000070B504460068C5680669B10772
:101C900016D515F0020113D06FF002010161012188
:101CA00021778069800703D02046FFF7E9FF05E030
:101CB000204600F08FF8204600F0CEF90020207773
:101CC000700719D515F0040016D020686FF00401D4
:101CD000016102212177806910F4407F04D0204601
:101CE000FFF7CEFF06E000BF204600F073F8204665
:101CF00000F0B2F900202077300717D515F0080062
:101D000014D020686FF00801016104212177C069B7
:101D1000800703D02046FFF7B3FF05E0204600F020
:101D200059F8204600F098F900202077F00619D5E0
:101D300015F0100016D020686FF010010161082125
:101D40002177C06910F4407F04D02046FFF798FF48
:101D500006E000BF204600F03DF8204600F07CF988
:101D600000202077F00718BF15F0010002D13006DF
:101D700009D412E020686FF001010161204600F0F3
:101D8000F5F9300609D515F0800006D020686FF00F
:101D9000800101612046FFF7F3FE700609D515F0BA
:101DA000400006D020686FF040010161204600F03D
:101DB000DFF9B00658BF70BD15F0200008D02168CB
:101DC0006FF0200220460A61BDE87040FFF7DABEDE
:101DD00070BD00007047000090F83C30012B04BF3C
:101DE000022070474FEAB202032A00F2FF802DE979
:101DF000F043DFE802F003B13F7F00BF036840F229
:101E000000461C6A1A6A24F0020422F001021A62D7
:101E10001A46D3F804C052F818EF8F6843F480656F
:101E2000C4F20106B54244EA070405D1CF6824F0A4
:101E30000C0427F004073C430F68B54206D1D1E9F2
:101E400005582CF440762E4346EA080C2EF0730613
:101E50003743C3F804C09F614F6809695F631C6220
:101E60009F6947F008079F619F6927F004079F61FA
:101E7000B1E000BF036840F200481C6A1A6A24F40B
:101E8000007422F480721A621A46D3F804C052F821
:101E90001CEF8F6843F48065C4F20108454544EAAD
:101EA000072408D1CF6840F2FF463F0224F4406483
:101EB00027EA06063443D1F80090454506D1D1E91A
:101EC00005562CF440572E4347EA061C2EF07307A4
:101ED00047EA0907C3F804C0DF614F680969DF6397
:101EE0001C62DF6947F00807DF61DF6927F004073C
:101EF000DF6170E0036840F20045D3F820C01A6A41
:101F000043F4806722F480521A621A465C6852F8E1
:101F10001C8FD1F800E08E68C4F20105AF4204D1F5
:101F20004D6924F4804444EA85142CF4005747EAB0
:101F3000063728F4E64646EA0E265C60DE614E6807
:101F400009691E641F62DF6947F40067DF61DF69AA
:101F500027F48067DF613DE0036840F200481C6AB7
:101F60001A6A24F0200422F010021A621A46D3F8EA
:101F700004C052F818EF8F6843F48065C4F201087A
:101F8000454544EA071407D1CF686FF0400624F0B6
:101F9000C00406EA07163443D1F80090454506D13F
:101FA000D1E905562CF440672E4347EA860C2EF4FF
:101FB000E64747EA0927C3F804C09F614F680969EB
:101FC0009F631C629F6947F400679F619F6927F4C4
:101FD00080679F6109021368194311600021BDE801
:101FE000F043002280F83C2008467047012100227F
:101FF00080F83C2008467047002804BF0120704745
:1020000010B5044690F83D0028B9002084F83C0043
:10201000204600F01FF8022084F83D002068211DB2
:1020200001F03AF9012084F8460084F83E0084F873
:102030003F0084F8400084F8410084F8420084F8AE
:10204000430084F8440084F8450084F83D000020F3
:1020500010BD00007047000070470000C1B10429A6
:1020600008D0082914BF41224022825C012A05D0F1
:1020700016E000BF3F22825C012A11D1022208290A
:1020800010D0042914BF80F8412080F83F200BE0D5
:1020900090F83E20012A03D1022280F83E2003E07E
:1020A0000120704780F84020006801F01F010122E4
:1020B000036A02FA01F123EA01020262026A114391
:1020C00041F2FF72C4F20002904201620CDC40F265
:1020D000FF71C4F20001884214DCB0F1804F37D0A8
:1020E00040F2004116E000BF40F2FF31C4F20101AE
:1020F000884215DC41F60001C4F20001884227D075
:10210000002115E040F60001C4F2000188421FD012
:1021100040F60041C4F20001884219D01FE000BF20
:1021200044F20001C4F20101884211D040F20041A2
:10213000C4F20101884212D1416C40F2004340F4E4
:102140008062C4F2010341F400419A42416406D125
:10215000816801F00701062904BF0020704701686B
:1021600041F001010160002070470000704700004D
:1021700070470000FEE700002DE9F04381B00446FF
:10218000006890460268099D42F4807202604269CC
:10219000089E9946D2070F461DD1711C11D0002E02
:1021A00000F0D080FEF78CFE401BB04200F2CC80E5
:1021B00020684169C907F5D00DE000BF4169C90732
:1021C00009D14169C90706D14169C90704BF4169FD
:1021D0005FEAC171F2D007F0FE0101614169890730
:1021E00036D44169721C1CD0490510D4002E00F071
:1021F000E78000BFFEF764FE401BB04200F2E280C1
:1022000020684169890723D441694905F2D50168ED
:1022100041F4007101606FF4806141610420D2E0FB
:1022200041694905F3D44169890711D441694905D8
:10223000EDD4416989070BD441694905E7D4416967
:10224000890705D441694905E1D441698907E7D582
:1022500000210091014651F8142F00924A68009223
:10226000009A0A6812061ED4002E00F08580721CA7
:1022700053D10A68520500F187800A68120612D409
:102280000A68520500F180800A6812060BD40A68B9
:10229000520579D40A68120605D40A68520573D427
:1022A0000A681206E5D5B9F1010F23D04FEA1821CB
:1022B0000161014651F8142F12061BD4002E5BD089
:1022C000721C3AD10A6852055ED40A68120611D40B
:1022D0000A68520558D40A6812060BD40A685205D7
:1022E00052D40A68120605D40A6852054CD40A680A
:1022F0001206E7D55FFA88F10161002001B0BDE860
:10230000F08300BFFEF7DCFD401BB04239D82068E7
:10231000014651F8142F1206C5D408684005F1D5BE
:1023200032E000BFFEF7CCFD401BB04229D8206848
:10233000014651F8142F1206DCD408684005F1D587
:1023400022E000BFFEF7BCFD00202021206384F8BE
:102350003D1084F83E00216C41F020012164216889
:1023600084F83C000868C00544BF4FF40070206446
:10237000032001B0BDE8F0830868400504D4FEF7EF
:102380009FFD202004E000BF6FF4806008600420FF
:1023900000212022216384F83D2084F83E10226C25
:1023A0001043206484F83C10206C042817D1206866
:1023B000016841F400710160012001B0BDE8F083C3
:1023C000FEF77EFD202000212022216384F83D209D
:1023D00084F83E10226C1043206484F83C100120E5
:1023E00001B0BDE8F083000070B50368044653F8FF
:1023F000140F400737D40E46F1B1701C24D100BF32
:102400001868400532D4186840072CD41868400575
:102410002CD41868400726D41868400526D41868BC
:10242000400720D41868400520D4186840074FF0B2
:10243000000048BF70BDE3E71868400516D4FEF7FA
:102440003FFD202016E000BF154600BF186840057C
:102450000CD4FEF735FD401BB042F2D8236853F888
:10246000140F4007F2D5002070BD00BF6FF48060EC
:102470001860042000212022216384F83D2084F884
:102480003E10226C10432064012084F83C1070BD83
:1024900010B5002841F2000440F29400C4F2020496
:1024A000C2F2000002D00021017001E0007820B9E2
:1024B00020460821FEF7F8FC70B120460821FEF7FF
:1024C000F3FC012816D140F29400C2F20000002172
:1024D0000170002010BD00BF0A20FEF701FC40F291
:1024E0009400C2F200000121017020460821FEF78D
:1024F000DBFC08B1002010BD012010BD10B5002884
:1025000041F2000440F29500C4F20204C2F200005D
:1025100002D00021017001E0007820B9204604219A
:10252000FEF7C2FC70B120460421FEF7BDFC012875
:1025300016D140F29500C2F2000000210170002087
:1025400010BD00BF0A20FEF7CBFB40F29500C2F29F
:1025500000000121017020460421FEF7A5FC08B10E
:10256000002010BD012010BD10B5002841F200046C
:1025700040F29600C4F20204C2F2000002D0002130
:10258000017001E0007820B920461021FEF78CFC94
:1025900070B120461021FEF787FC012816D140F2C9
:1025A0009600C2F2000000210170002010BD00BFA3
:1025B0000A20FEF795FB40F29600C2F200000121CE
:1025C000017020461021FEF76FFC08B1002010BDFD
:1025D000012010BD2DE9F04387B0002743F63000FD
:1025E0000697CDE90477CDE902770197C4F202009E
:1025F000016841F2000841F0100101600168C4F275
:10260000020801F01001019101990197016808F594
:10261000806541F0200101600168012201F0200184
:1026200001910199019701684FF4C06941F080015F
:1026300001600168012401F0800101910199019775
:10264000016841F00101016000684FF4C06100F0D1
:102650000100019001982846FEF72CFC102002AEE4
:10266000CDE90207404631460494FEF74DFB0820B1
:10267000CDE90207404631460494FEF745FB0420AD
:10268000CDE90207404631460494FEF73DFB28465B
:102690003146CDE90294CDE90447FEF735FB02202F
:1026A0000490A8F580503146CDE90247FEF72CFB97
:1026B00007B0BDE8F083000070B58EB040F26870DE
:1026C00041F600450021C2F2000040F2E733C4F2B7
:1026D0000005CDE90611CDE904115322C0E902132A
:1026E00001618021C0E900528161FFF74DFA0028A5
:1026F00018BFFDF7E3FD40F26870C2F20000FFF77B
:102700007BFC002818BFFDF7D9FD40F268746020FB
:10271000C2F200040190002601A920460022CDE962
:1027200002660596FFF758FB002818BFFDF7C6FDA7
:1027300020680D96A842CDE90B660A96099617D037
:1027400042F20001C4F2000188422ED1002008901C
:1027500043F63000C4F20200016841F0200101603C
:10276000006800F02000089008980EB070BD00BF0F
:10277000002043F630010890C4F202010A6842F0DA
:1027800020020A60096801F02001089108994FF4BD
:10279000807109910221CDE90A100C9009200D9059
:1027A00005F5FC3009A9FEF7AFFA0EB070BD0000C8
:1027B00070B58EB042F2000540F2B070C4F2000570
:1027C0000021C2F20000A7226323CDE90611CDE962
:1027D0000411C0E90052C0E9021301618161FFF7F1
:1027E000D3F9002818BFFDF769FD40F2B070C2F2BE
:1027F0000000FFF701FC002818BFFDF75FFD602017
:1028000040F2B07401900220C2F20004002603904E
:1028100001A92046002202960596FFF7DDFA00285E
:1028200018BFFDF74BFD206841F60041C4F20001DE
:1028300088420D96CDE90B66CDE9096612D0A84213
:102840002DD10020089043F63000C4F20200016848
:1028500041F020010160006800F020000890089815
:102860000EB070BD002043F630010890C4F20201A2
:102870000A6842F020020A60096801F0200108910C
:1028800008994FF4807109910221CDE90A100C904A
:1028900009200D9005F5FA3009A9FEF735FA0EB0BA
:1028A00070BD0000FEE70000FEE7000080B540F2CA
:1028B000F870C2F200004FF48061FDF7B9FC80BDF2
:1028C0007F2898BF3F2901D9704700BFB0B54FF6A8
:1028D000F8730B4001F0070E40F2F871C2F20001EC
:1028E00001EB03154FF0010C2B5C0CFA0EF143EADF
:1028F0000104002A08BF23EA01042C54BDE8B040BB
:10290000704700002DE9F04389B0002443F6300001
:102910000894CDE90644CDE904440394C4F20200CE
:10292000016845F6000541F0020101600168C4F24A
:10293000000501F00201039103990394016941F438
:1029400080010161006904A900F4800003900398EC
:102950004FF4406004901220059001200690022060
:1029600007900420089005F5D630FEF7CDF940F227
:102970002008C2F20008404641F6802140F8045F7A
:10298000C0F206014FF48042C0E90114C0E90342DD
:10299000C0E90544C0E90744FEF798FA002818BFCB
:1029A000FDF78CFC64204FF06409FEF799F908F1FB
:1029B00004052846782103226423FEF739FB0446E8
:1029C00050B128467A2103226423FEF731FB18B167
:1029D000002009B0BDE8F083002C18BF012488F85E
:1029E00000404FF0FF3412A5012603AF28194178AB
:1029F000404610F8042B8DF80C10002A4FF0780197
:102A00004FF000024FF00103CDE9007618BF7A21A4
:102A1000CDF80890FEF722FC0134182CE6D198F886
:102A200000107820002918BF7A2009B0BDE8F08393
:102A3000AED580A83FD300408D142002A1C8DA1281
:102A400081CFD9F1DB40A4A6AF0000002DE9F04F03
:102A500085B040F2200740F2F876C2F20007C2F2D9
:102A600000064FF0640901253C1D4FF47A7B4FF0BE
:102A700080084FF0000A00BF4AF0B00039788DF8A6
:102A800011000DF11100CDE9000500294FF078018A
:102A900020464FF000024FF0010318BF7A21CDF815
:102AA0000890FEF7DBFB387800218DF812100DF14D
:102AB0001201CDE9001500284FF0780120464FF0B3
:102AC00000024FF0010318BF7A21CDF80890FEF7FD
:102AD000C5FB387810218DF813100DF11301CDE9E5
:102AE000001500284FF0780120464FF000024FF00B
:102AF000010318BF7A21CDF80890FEF7AFFB3878B4
:102B00007821002820464FF040024FF00103CDE924
:102B1000006818BF7A21CDF808B0FEF79FFB0AF1D4
:102B2000010ABAF1080F06F18006A5D105B0BDE88B
:102B3000F08F00002DE9F04FAAB04CF2E3439A4227
:102B400044F2AC53C0F6000305D04BF6C327BA429B
:102B500040F0188208335A68002A00F0138201F00E
:102B60000703012707FA03FC4B1C279303F0070315
:102B700007FA03F329938B1C269303F0070307FA44
:102B800003F32893CB1C239303F0070307FA03F303
:102B900025930B1D229303F0070307FA03F32493F5
:102BA0004B1D179303F0070307FA03F321938B1DC3
:102BB000169303F0070307FA03F32093CB1D159335
:102BC00003F0070307FA03F301F1090B1F930BF05E
:102BD000070307FA03F301F10A051E9305F0070343
:102BE00007FA03F31D9301F10B0303F0070407FA3F
:102BF00004F401F10C081C9408F0070407FA04F42B
:102C00001B9401F10D0404F0070A07FA0AF601F11A
:102C10000E0A0AF007091A9607FA09F601F10F09D8
:102C200009F0070E07FA0EF71897279FDB08FF0831
:102C30002797269F1996FF084FEADB06129340F26A
:102C4000F87B279B2697239FC2F2000B13964FEA2F
:102C5000DA060BEBC31A269BFF082397229F0BEB88
:102C6000C3132793239BFF082297179F0BEBC313D4
:102C70002393229BFF081497169F0BEBC313179304
:102C8000149BFF081697159F0BEBC3131493169B09
:102C9000FF0815970BEBC3131193159B01F1080E59
:102CA0004FEADE0E0BEBC31310930BEBCE130F9317
:102CB000139BED080BEBC3130E930BEBC5130C9397
:102CC000129B4FEAD8080BEBC313E4080A930BEBF3
:102CD000C81308930BEBC4134FEAD90706930BEB09
:102CE000C61304930BEBC7130293299B4FEAD10938
:102CF0006FEA0308289B0BEBC919DB432693259B3E
:102D00006FEA0C0BDB432293249B0024DB431693D6
:102D1000219BDB431593209BDB4313931F9BDB43DA
:102D200012931E9BDB430D931D9BDB430B931C9B5C
:102D3000DB4309931B9BDB4307931A9BDB43059300
:102D4000199BDB430393189BDB43019304E000BF13
:102D50000134102C00F0168103191FFA83FEBEF116
:102D60007F0F98BF3F29F3D819F80E30175D43EA5B
:102D70000C05FF0708BF03EA0B053E2909F80E50B2
:102D8000E6D81AF80E30155D299EAD0743EA06070E
:102D900058BF03EA08073D290AF80E70D8D84646FE
:102DA000DDF89C80155D18F80E30289F6D0747EA06
:102DB0000307269D58BF03EA05073C2908F80E7053
:102DC000B046C5D8239E155D16F80E30259F2D07F9
:102DD00047EA0307229D58BF03EA05073B2906F887
:102DE0000E70B5D8179E155D16F80E30249FED06AF
:102DF00047EA0307169D58BF03EA05073A2906F874
:102E00000E70A5D8149E155D16F80E30219FAD06E4
:102E100047EA0307159D58BF03EA0507392906F855
:102E20000E7095D8119E155D16F80E30209F6D0618
:102E300047EA0307139D58BF03EA0507382906F838
:102E40000E703FF685AF109E175716F80E50129B66
:102E5000002F03EA05031F9F48BF45EA07033729F0
:102E600006F80E303FF674AF0F9E151916F80E30A7
:102E700000952D7C43EA0C07ED0708BF03EA0B071A
:102E8000362906F80E703FF663AF0E9E009D16F8C9
:102E90000E302D7C1E9FAD0747EA03070D9D58BFDE
:102EA00003EA0507352906F80E703FF651AF0C9E70
:102EB000009D16F80E302D7C1D9F6D0747EA030715
:102EC0000B9D58BF03EA0507342906F80E703FF63C
:102ED0003FAF0A9E009D16F80E302D7C1C9F2D07DB
:102EE00047EA0307099D58BF03EA0507332906F897
:102EF0000E703FF62DAF089E009D16F80E302D7C0B
:102F00001B9FED0647EA0307079D58BF03EA050725
:102F1000322906F80E703FF61BAF069E009D16F88C
:102F20000E302D7C1A9FAD0647EA0307059D58BF5A
:102F300003EA0507312906F80E703FF609AF049E33
:102F4000009D16F80E302D7C199F6D0647EA030789
:102F5000039D58BF03EA0507302906F80E703FF6B7
:102F6000F7AE029E009D16F80E30019F95F91050A5
:102F70001F40002D189D48BF43EA050706F80E7054
:102F8000E6E600BF2AB0BDE8F08F00002DE9F04F63
:102F900085B040F2F87A144605464FF00109C2F2B6
:102FA000000A04910FE000BF617841EA0022049911
:102FB00028B2FFF7BFFD022005F110010DB2802DF0
:102FC000044480F2F9802078002800F0F58041B2B6
:102FD0000029E9D4A0F17F0111F15F0F02D2012095
:102FE000EAE700BF43F67C712038C0F600010022FA
:102FF00001EB00100094CDE9010505E0039A029D64
:103000000132082A00F0D4800198039200EB020BF1
:1030100005EB420081B201300BF1080E86B20020B0
:1030200005E000BFEAB20F2A00F10200E6D25FFA23
:1030300080F87446B8F1080F38BF5C46054624781E
:1030400028BF083DEDB2EC40E40716D0049A00F02A
:103050007F047F2902EB440598BF3F2D34D97F2E92
:1030600098BF3F2D41D97F2905F1010798BF3E2D1B
:1030700048D97F2E98BF3E2D53D940F001057246A6
:10308000B8F1080F38BF5A462B46127828BFC31F25
:10309000DBB2DA40D207C5D0049B05F07F027F295E
:1030A00003EB420798BF3F2F48D97F2E98BF3F2F91
:1030B00053D97F2907F1010498BF3E2F5AD97F2E9B
:1030C00098BF3E2FAED867E025F007070AEB071739
:1030D00005F0070417F801C009FA04F444EA0C04E7
:1030E0007C547F2E98BF3F2DBDD825F007040AEBF6
:1030F000041405F00707A35D09FA07F73B43A3553E
:10310000B1E700BF27F007040AEB041407F0070338
:10311000625C09FA03F31A4362547F2E98BF3E2D76
:10312000ABD827F007030AEB031307F007029F5DF4
:1031300009FA02F23A439A559FE700BF27F00703C6
:103140000AEB031307F007025C5C09FA02F2224360
:103150005A547F2E98BF3F2FABD827F007030AEBB6
:10316000031307F007029C5D09FA02F222439A5505
:103170009FE700BF24F007030AEB031304F0070CDA
:1031800013F8018009FA0CF242EA08025A547F2E21
:1031900098BF3E2F3FF646AF24F007030AEB031318
:1031A00004F007029F5D09FA02F23A439A5539E7A3
:1031B000009C012000E700BF05B0BDE8F08F0000D3
:1031C0007047000070470000FEF738B970B592B044
:1031D00006AC20463021FDF72BF8002543F64000D1
:1031E0000595CDE90355CDE901550095C4F20200DE
:1031F0000168022641F080510160006800F08050B3
:103200000090009847F200000095C4F200000168A9
:1032100041F480410160006800F480400090009813
:10322000012006904FF4803007904FF480000D90FD
:1032300008200E904FF4A870CDE90F0604201190DD
:1032400020460C96FEF7B0FA10B172B6FEE700BF4A
:103250000F20CDE901064FF4A05004904FF48050A8
:10326000059001A805210395FEF7A0F910B172B6EB
:10327000FEE700BF12B070BD4EF68850CEF20000DF
:10328000016841F4700101607047000040F2B070C5
:10329000C2F20000FEF7F6BCB0B540F6FF3E05688E
:1032A000C4F2000E40F2004C7045C4F2010C25DC63
:1032B000B0F1804F2FD040F20043C4F20003984297
:1032C00029D040F60003C4F20003984223D041F60F
:1032D000FF73C4F20003984228DC70453ADCB0F179
:1032E000804F5BD040F20043C4F20003984255D0B7
:1032F00040F60003C4F200034EE000BF40F6004376
:10330000C4F20003984206D0604504D00023C4F202
:1033100001039842DBD14B6825F0700243EA0205B5
:1033200041F6FF73C4F200039842D6DD43F6FF7303
:10333000C4F2010398421FDC42F20003C4F200030E
:1033400098422BD00023C4F20103984226D0604556
:1033500024D028E040F60043C4F2000398421DD078
:1033600041F60003C4F20003984217D041F600432F
:10337000C4F2000310E000BF44F20003C4F20103F2
:1033800098420BD044F60003C4F20103984205D0E2
:1033900044F20043C4F20103984204D1CB6825F4FF
:1033A000407243EA02050A688C684B69C46240F4C3
:1033B00080648262644504BF09690163026825F084
:1033C000800142F00402194302600122426101605F
:1033D000B0BD0000FEE7000070B5002440F29A0680
:1033E000C4F20204C2F2000610B10020307001E005
:1033F000307898B9204601210125FDF755FD0128B7
:103400000CD10A20FDF76CFC204601213570FDF738
:103410004BFD012818BF0025284670BD204601211C
:10342000FDF742FD0025002804BF0020307028462B
:1034300070BD000041F20048C4F20208FEF70CF82B
:10344000FFF7C4FEFFF7C6F8FFF7B2F9FFF734F94C
:1034500040F2687AC2F2000A50460021FEF7FEFDF3
:10346000FFF750FA40F2040940F2780BC2F200096B
:10347000C2F2000BC0B1FFF719FAFFF7E7FAFDF748
:103480001FFDC9F8080040F29C00C2F200000121B3
:10349000002201704FF08541C4F27C22C0E9011284
:1034A000182101730FE000BF01208BF80200404695
:1034B0004FF400710022FDF7FDFC40464FF480619F
:1034C0000022FDF7F7FC40F2970740F2980400262F
:1034D000C2F20007C2F2000499F8000050B39BF852
:1034E000020038BBFDF7ECFCDBF81010B9F8022045
:1034F000401A90421ED3FDF7E3FCCBF810009BF876
:1035000001004FF40071B0FA80F040098BF801001F
:103510009BF80100B0FA80F042094046FDF7CAFC72
:103520009BF8012040464FF48061002A18BF012219
:10353000FDF7C0FC9BF8020000285BD1FDF7C0FC42
:10354000DBF81810401A1E2854D3FDF7B9FCCBF84D
:103550001800FDF7B5FCDBF81410B9F80240451A65
:10356000A54210D3FDF7ACFCCBF81400B9F8040069
:103570000238A9F80400B9F9040010F1600FDCBFAB
:103580008020A9F80400FCF799FF9BF8041000299B
:1035900000F0F080481E8BF80400FFF787F9B9F9B6
:1035A000040010210FF2E442FFF7F0FCFCF78AFE62
:1035B0009BF8040044F2BC54C0B2C0F6000428B129
:1035C000052800F2E380C00700F0E580FFF73EFA2F
:1035D00041F2004840F2687A40F2970740F29804BE
:1035E000C4F20208C2F2000A0026C2F20007C2F2C8
:1035F000000400BF9BF80000002849D0FDF760FCE4
:10360000DBF80C10884243D3BBF806003D2809D3F1
:103610008BF80060DAF80000012146635046FEF79F
:103620001DFB35E0BBF8060044F20D61C0F6000159
:10363000085C44F24A61C0F6000131F8100044F21F
:103640004021C0F20F01B1FBF0F0DAF800100138B0
:1036500080B2C862CAF80C00400848635046012195
:10366000FEF7FCFAFDF72CFCBBF8061044F2D05232
:10367000C0F60002515CB9F80220514300EB510042
:10368000CBF80C00BBF806000130ABF8060000BF19
:103690000020FEF769FF0128387017D13E7099F8B5
:1036A0000000B0FA80F0400989F8000099F80000A5
:1036B00060B940464FF400710122FDF7FBFB404624
:1036C0004FF480610122FDF7F5FB00BF0020FEF7FB
:1036D000DFFE0128207019D126709BF80000B0FA97
:1036E00080F040098BF800009BF8000030B1ABF887
:1036F0000660FDF7E5FBCBF80C0007E0DAF8000008
:10370000012146635046FEF7A9FA00BF0020FFF7EB
:1037100063FE40F29B010128C2F2000108700DD146
:1037200040F29B00C2F200000670B9F80200332894
:1037300004D3B9F802003238A9F802000020FEF7DD
:10374000DDFE40F299010128C2F2000108707FF409
:10375000C3AE40F29900C2F200000670B9F8020050
:10376000C0087C283FF6B8AEB9F802003230A9F89C
:103770000200B1E6A54240F29804C2F20004BFF490
:103780000CAF00283FF436AF07E700BF00F006009B
:10379000062840F02D814FF0000A05E00AF1010AE9
:1037A000BAF10A0F3FF412AF34F81A80AAF10400FC
:1037B00010F1030F36D25FEA48403FD45FEA8840F9
:1037C0004AD45FEAC84055D45FEA085060D45FEA43
:1037D00048506BD45FEA885076D45FEAC85000F155
:1037E00082805FEA086000F18D805FEA486000F146
:1037F00098805FEA886000F1A3805FEAC86000F10A
:10380000AE805FEA087000F1B9805FEA487000F1AD
:10381000C4805FEA887000F1CF805FEAC870BDD0D5
:10382000D9E000BFBBF80A10BBF90800514409B247
:103830000122FFF745F85FEA4840BFD5BBF8080012
:10384000BBF80A100130514409B200B20122FFF75F
:1038500037F85FEA8840B4D5BBF80800BBF80A1017
:103860000230514409B200B20122FFF729F85FEAA1
:10387000C840A9D5BBF80800BBF80A100330514472
:1038800009B200B20122FFF71BF85FEA08509ED58B
:10389000BBF80800BBF80A100430514409B200B26A
:1038A0000122FFF70DF85FEA485093D5BBF80800F6
:1038B000BBF80A100530514409B200B20122FEF7EC
:1038C000FFFF5FEA885088D5BBF80800BBF80A10F4
:1038D0000630514409B200B20122FEF7F1FF5FEA5F
:1038E000C8507FF57EAFBBF80800BBF80A10073060
:1038F000514409B200B20122FEF7E2FF5FEA08601C
:103900007FF573AFBBF80800BBF80A1008305144CC
:1039100009B200B20122FEF7D3FF5FEA48607FF5EB
:1039200068AFBBF80800BBF80A100930514409B26F
:1039300000B20122FEF7C4FF5FEA88607FF55DAF49
:10394000BBF80800BBF80A100A30514409B200B2B3
:103950000122FEF7B5FF5FEAC8607FF552AFBBF802
:103960000800BBF80A100B30514409B200B2012222
:10397000FEF7A6FF5FEA08707FF547AFBBF80800C7
:10398000BBF80A100C30514409B200B20122FEF714
:1039900097FF5FEA48707FF53CAFBBF80800BBF8C3
:1039A0000A100D30514409B200B20122FEF788FF1F
:1039B0005FEA88707FF531AFBBF80800BBF80A10EA
:1039C0000E30514409B200B20122FEF779FF5FEADE
:1039D000C8703FF4E3AEBBF80800BBF80A100F3024
:1039E000514409B200B20122FEF76AFFD6E600BFD9
:1039F0004FF000080AE000BF08F1010844F2BC548F
:103A0000B8F10A0FC0F600043FF4E0AD4FEA4805F4
:103A100034F818A06C1C002603E000BF0136102EFD
:103A2000EAD00AFA06F00004F8D5BBF80800BBF8A3
:103A30000A1000EB4600294400B209B201227700C7
:103A4000FEF73EFFBBF80800BBF80A100137384408
:103A5000294400B209B20122FEF732FFBBF8080088
:103A6000BBF80A1000EB4600214400B209B2012263
:103A7000FEF726FFBBF80800BBF80A1038442144C3
:103A800000B209B20122FEF71BFFC7E77A68793559
:103A9000323000004100080218BF04200A0E18BF8F
:103AA00040F001004FF07F4232EA010108BF40F0D0
:103AB0000200012808BF05207047000010EE101A10
:103AC00008B5444A6846B2EB410F28D94FF0E640AA
:103AD000B0EB410F94BF00204FF0FF3000900098F2
:103AE000002861DB60EE000A10F0010F45D010F0F5
:103AF000020FDFED391A9FED391A00EEA11ADFED42
:103B0000381A40EE811A21EEA01AF0EE400A40EE7B
:103B1000010A08BFF1EE600AB0EE600A08BD314B41
:103B200021F0004293423CD911F0004FDFED2E0A04
:103B300020EE201ADFED2D0A19BF31EE601A71EE6A
:103B4000200A31EE201A71EE600ABDEEE01A11EE85
:103B5000100A9FED271A00F0030000EEC10A9FED46
:103B6000251A009000EEC10A9FED231A00EEC10A4B
:103B70009FED221A00EEC10AB1E79FED211A9FEDD9
:103B8000210A10F0020F00EE810A9FED1F1A00EECD
:103B9000801AB7EE000A00EE810A18BFB1EE400AA3
:103BA00008BD00F00FF99AE710EE100A4000B0F1DE
:103BB0007F4F3CBFB7EE000A08BD07D14FF00100B0
:103BC00000F0BAF9BDE8084000F0ECB8BDE80840E4
:103BD00000F0E4B8B61F927E336D4CB9DA82083C2F
:103BE000A0AA2ABE490E494683F9223F0000004B95
:103BF0000000C93F00A0FD390020A2331A61342C17
:103C0000B93AB2BACA9F2A3DDDFFFFBE00B510EE39
:103C1000101A2DED028B81B0524A6846B2EB410F6B
:103C20002ED94FF0E640B0EB410F94BF00204FF08B
:103C3000FF3000900098B0EE408A00286ADB10F058
:103C4000010F4BD068EE080A9FED471A9FED470A17
:103C500000EE810A9FED461A10F0020F00EE801A66
:103C6000B7EE000A00EE810A02BF01B0BDEC028B84
:103C700000BD00BF01B0B1EE400ABDEC028B00BD3B
:103C80003C4B21F00042934241D911F0004FDFED4F
:103C90003A0A20EE201ADFED390A19BF31EE601A18
:103CA00071EE200A31EE201A71EE600ABDEEE01AC4
:103CB00011EE100A9FED321A00F0030000EEC10A67
:103CC0009FED301A009000EEC10A9FED2F1A00EE12
:103CD000C10A9FED2E1A00EEC10AABE728EE080AD2
:103CE0009FED2B1ADFED2B0A10F0020F40EE010AB8
:103CF0009FED291A00EE201A61EE000AB0EE480A84
:103D000008EE200AB6D101B0BDEC028B00BD00F078
:103D100059F88FE718EE100A4000B0F17F4F0DD22E
:103D200018EE100AFFF7B6FE042808BF00F042F8AC
:103D3000B0EE480A01B0BDEC028B00BD09D10120F4
:103D400000F0FAF801B0BDEC028B5DF804EB00F076
:103D500029B801B0B0EE480ABDEC028B5DF804EB67
:103D600000F01CB8B61F927EB93AB2BACA9F2A3D7B
:103D7000DDFFFFBE490E494683F9223F0000004B9C
:103D80000000C93F00A0FD390020A2331A61342C85
:103D9000336D4CB9DA82083CA0AA2ABE30EE000A84
:103DA00070470000DFED020A80EEA00A70470000B5
:103DB000000000009FED020A20EE000A704700009C
:103DC000000000102DE9F0014FF07F42B2EB410FEF
:103DD0009FBF4FF0FF310160BDE8F00170474FF029
:103DE000004242EA0123C1F3C752783A551112F05A
:103DF0001F0C434CCCF120067C44C1F3C752A2F106
:103E000078024FEA621204EB820254F8254008BFA0
:103E1000D2E9015612D0556804FA0CF425FA06F7D7
:103E20003C43976805FA0CF527FA06F8D26807FABA
:103E30000CFCF24045EA08054CEA0206A4FB034CE0
:103E4000A5FB0352A6FB03631D449D4234BF01261C
:103E500000261319334416B1934202D903E093426A
:103E600001D2012200E00022624402F1200C9206FD
:103E7000DC0C42EA443200EE102A5B03DFED210A3B
:103E8000F8EEC01A00EE103A4FEA9C1C11F0004FF9
:103E9000B8EE400AC0F800C020EE201A00EE105A1A
:103EA000DFED190AB8EE400A20EE200A71EE810A11
:103EB00070EE800A10EE902A02F500626FF30B029A
:103EC00000EE902A70EEE11A31EEC11ADFED101A01
:103ED00030EE411A9FED0D0A20EE800A01EE210A14
:103EE0009FED0C1A00EE810A04BFBDE8F001704797
:103EF000CCF180510160BDE8F001B1EE400A70479D
:103F000048010000000000360000802C22AAFD2994
:103F1000DB0FC92F0000C92F02E008C8121F08C11B
:103F2000002AFAD170477047002001E001C1121F3A
:103F3000002AFBD17047000001490860704700006B
:103F400000000020000000006E83F9A22915444EF5
:103F5000D15727FCC0DD34F5999562DB4190433C95
:103F6000AB6351FE000000000000000001020304EA
:103F70000607080900000000010203040000000019
:103F80000000000000000000000000007F000000B2
:103F90000000000006000000000000000806010804
:103FA00006010000000000000000000088F88F8873
:103FB000F88F000000070000070000001C2222FF0D
:103FC000428C00000608083F080700001E219E7072
:103FD000CC23C0000006010003040300C03E619131
:103FE0002EE0200003040405030404020907000076
:103FF000000000000000000000000000F00C0201C2
:1040000000000000030C10200000000001020CF072
:104010000000000020100C0300000000242418FF02
:104020001824240000000000000000000808087F99
:104030000808080000000000000000000907000058
:10404000000000000000000000000000010101016C
:104050000101000000000000000000000303000058
:104060000000000000000000000000000000C03060
:104070000E0100001806010000000000FC02010112
:1040800002FC000001020404020100000202FF0021
:104090000000000004040704040000000E01814138
:1040A000211E00000605040404060000060121216B
:1040B000518E00000304040404030000C0B088868D
:1040C000FF80800000000404070404003F11111168
:1040D00021C100000304040402010000FC221111AC
:1040E00012E0000001020404040300000301C131D6
:1040F0000D03000000000700000000008E51212188
:10410000518E000003040404040300003E414141B9
:1041100022FC00000002040402010000C3C30000EE
:10412000000000000000000000000000C1000000CE
:104130000000000001000000000000002050880482
:104140000201000000000001020400000909090941
:1041500009090000000000000000000001020488BE
:104160005020000004020100000000000E0901E1DF
:10417000110E00000000060600000000F806F90518
:10418000FD02FC00000304050505020000807847DD
:104190005CE00000040704000004070401FF1111A3
:1041A000112EC0000407040404020100F8060101F6
:1041B00001010700000304040402010001FF0101E2
:1041C0000102FC00040704040402010001FF1111B4
:1041D0007D010200040704040404030001FF11111F
:1041E0007D0102000407040000000000F806010140
:1041F00041C74000000304040403000001FF212024
:104200002021FF0104070400000407040101FF014D
:104210000100000004040704040000000000010184
:10422000FF010100181010100F00000001FF1138ED
:10423000C5030100040704000407040001FF010096
:1042400000000000040704040404060001FF3FC04E
:104250003FFF0100040700070007040001FF0618E4
:10426000E001FF010407040000030700FC02010154
:104270000102FC00010204040402010001FF2121EB
:1042800021211E000407040000000000FC020101BF
:104290000102FC0001020505060A090001FF1111D7
:1042A00071910E0004070400000106040E11212183
:1042B000418700000704040404030000030101FF18
:1042C00001010300000004070400000001FF0100D9
:1042D0000001FF010003040404040300010FF100C6
:1042E000C03907010000000701000000017FC03F46
:1042F000C07F0100000007000700000001038D706F
:10430000708D03010406050000050604010719E08D
:104310001907010000000407040000000201C12188
:10432000190701000407040404040300FF0101014C
:10433000000000003F20202000000000010E7080DF
:1043400000000000000000010E300000010101FF2C
:10435000000000002020203F0000000002010102B8
:104360000000000000000000000000000101010149
:104370000101010100000000000000000101020035
:104380000000000000000000000000003249492544
:104390007E400000000000000000000001FF100847
:1043A0000810E00000030102020100001C2241414C
:1043B000412200000000000000000000F008080892
:1043C00009FF000001020202010302003E494949BF
:1043D000492E000000000000000000000808FE094F
:1043E000090200000202030202000000D629292966
:1043F00027C10000000101010100000001FF1008B9
:104400000808F00002030200000203021013F30088
:104410000000000004040704040000000000101362
:10442000F3000000181010100F00000001FF4060A2
:104430009808080002030200020302000202FF00C3
:10444000000000000404070404000000417F410153
:104450007F41017E0000000000000000417F42011A
:1044600001417E4000000000000000003E4141414B
:10447000413E0000000000000000000001FF22415A
:1044800041221C0001010100000000001C224141EA
:1044900022FF0000000000000101010041417F42B5
:1044A0004101030000000000000000006649494986
:1044B0004933000000000000000000000404FF0475
:1044C000048000000000000101000000013F4040A6
:1044D00040217F400000000000000000010719603B
:1044E000190701000000000000000000031D601912
:1044F0000F700D03000000000000000041631D5C10
:1045000063410000000000000000000001030DF006
:10451000300D030100010100000000004361594516
:10452000436100000000000000000000807E0101E7
:1045300000000000001F202000000000FF0000001D
:1045400000000000FF0000000000000001017E806C
:104550000000000020201F000000000002010202F5
:104560000402000000000000000000001010F01F16
:1045700010F000808282E2928A8680004022150834
:104580001661000040807F0000000000008060F89D
:10459000074020180F08C80808281800010000FF6D
:1045A00000100C0340807F0001061800E3C40000E7
:1045B0008C450008C3BA00006C45000806601FF86F
:1045C000FFFFFFFFFE7FFC3FF81FF00FE0078001B9
:1045D00001010201010201010101010102010101C8
:1045E00001010102010101010101010102010101B9
:1045F00001010201010101010102010101010101A9
:104600000201010101020101010101010303020193
:104610000302010103020101030203010306050570
:104620000306060505060505020102020302010252
:104630000203020101030203010306050503050548
:104640000302010202010202010100000B024B02FF
:104650009302BA0210037003DC03000080460008D6
:104660000000002020000000183F0008A0460008BD
:1046700020000020E00F0000283F0008000000009C
:10468000000000000100C8008000000001000000E0
:1046900001000000100000000024F40000000000F1
:040000050800018965
:00000001FF
